:020000040000FA
:1000000027202E20A401A701A70A0319742027087E
:10001000A4000F2055204F200F204F200428091C3A
:100020001620891C1A28091D202808000508A70089
:10003000AC00080086018701A501A601A701080000
:1000400086018701A501A6012C08A70008008316D8
:100050000313F1308F308312031308008316031348
:10006000FF308500860187010F3089000317880162
:1000700089018312031308003230A0000A30A10066
:100080004130A200A20B4228A10B4028A00B3E2821
:1000900008001430A8003C20A80B4B2808000A30A8
:1000A000A8003C20A80B5128080086018701A60162
:1000B000A501643024020318A60A0318A40003183B
:1000C00059280A30240203186D28A408031D71283A
:1000D00025088600260887000800A4001030A50720
:1000E0006128A50AA40366280230AD00A9010230E8
:1000F000AB000B30AA009220A90A4F208728AA0B38
:100100007B28AB0B7928AD0B7628A7010800A50149
:10011000A6012C08A700891C0800091D90287F282B
:10012000A70108002908992086002908B020870027
:10013000080082077F34FE34FC34F834F034E034B5
:10014000F034F834FC34FE347F34013402340434A7
:100150000834903460349034083404340234013468
:100160008207003400340134033407340F34073479
:1001700003340134003400340834043402340134CC
:0E0180000034003400340134023404340834F6
:02018E0000343B
:02019000003439
:02400E00F42399
:02401000FF3E71
:00000001FF
